{
  "contractName": "BorrowContract",
  "abi": [
    {
      "inputs": [
        {
          "internalType": "contract IERC20",
          "name": "_token1",
          "type": "address"
        },
        {
          "internalType": "contract IERC20",
          "name": "_token2",
          "type": "address"
        }
      ],
      "stateMutability": "nonpayable",
      "type": "constructor"
    },
    {
      "inputs": [
        {
          "internalType": "address",
          "name": "",
          "type": "address"
        }
      ],
      "name": "deposits",
      "outputs": [
        {
          "internalType": "uint256",
          "name": "",
          "type": "uint256"
        }
      ],
      "stateMutability": "view",
      "type": "function"
    },
    {
      "inputs": [],
      "name": "token1",
      "outputs": [
        {
          "internalType": "contract IERC20",
          "name": "",
          "type": "address"
        }
      ],
      "stateMutability": "view",
      "type": "function"
    },
    {
      "inputs": [],
      "name": "token2",
      "outputs": [
        {
          "internalType": "contract IERC20",
          "name": "",
          "type": "address"
        }
      ],
      "stateMutability": "view",
      "type": "function"
    },
    {
      "inputs": [
        {
          "internalType": "uint256",
          "name": "amount",
          "type": "uint256"
        }
      ],
      "name": "deposit",
      "outputs": [],
      "stateMutability": "nonpayable",
      "type": "function"
    },
    {
      "inputs": [
        {
          "internalType": "uint256",
          "name": "amount",
          "type": "uint256"
        }
      ],
      "name": "borrow",
      "outputs": [],
      "stateMutability": "nonpayable",
      "type": "function"
    }
  ],
  "bytecode": "0x608060405234801561001057600080fd5b50604051610ab7380380610ab7833981810160405281019061003291906100cf565b816000806101000a81548173ffffffffffffffffffffffffffffffffffffffff021916908373ffffffffffffffffffffffffffffffffffffffff16021790555080600160006101000a81548173ffffffffffffffffffffffffffffffffffffffff021916908373ffffffffffffffffffffffffffffffffffffffff1602179055505050610166565b6000815190506100c98161014f565b92915050565b600080604083850312156100e257600080fd5b60006100f0858286016100ba565b9250506020610101858286016100ba565b9150509250929050565b60006101168261012f565b9050919050565b60006101288261010b565b9050919050565b600073ffffffffffffffffffffffffffffffffffffffff82169050919050565b6101588161011d565b811461016357600080fd5b50565b610942806101756000396000f3fe608060405234801561001057600080fd5b50600436106100575760003560e01c806325be124e1461005c578063b6b55f251461007a578063c5ebeaec14610096578063d21220a7146100b2578063fc7e286d146100d0575b600080fd5b610064610100565b6040516100719190610658565b60405180910390f35b610094600480360381019061008f919061057f565b610126565b005b6100b060048036038101906100ab919061057f565b61022f565b005b6100ba6104ae565b6040516100c79190610658565b60405180910390f35b6100ea60048036038101906100e5919061052d565b6104d2565b6040516100f79190610693565b60405180910390f35b600160009054906101000a900473ffffffffffffffffffffffffffffffffffffffff1681565b60008054906101000a900473ffffffffffffffffffffffffffffffffffffffff1673ffffffffffffffffffffffffffffffffffffffff166323b872dd3330846040518463ffffffff1660e01b8152600401610183939291906105f8565b602060405180830381600087803b15801561019d57600080fd5b505af11580156101b1573d6000803e3d6000fd5b505050506040513d601f19601f820116820180604052508101906101d59190610556565b5080600260003373ffffffffffffffffffffffffffffffffffffffff1673ffffffffffffffffffffffffffffffffffffffff168152602001908152602001600020600082825461022591906106bf565b9250508190555050565b806003600260003373ffffffffffffffffffffffffffffffffffffffff1673ffffffffffffffffffffffffffffffffffffffff1681526020019081526020016000205461027c9190610746565b10156102bd576040517f08c379a00000000000000000000000000000000000000000000000000000000081526004016102b490610673565b60405180910390fd5b60008054906101000a900473ffffffffffffffffffffffffffffffffffffffff1673ffffffffffffffffffffffffffffffffffffffff1663a9059cbb336002846103079190610715565b6040518363ffffffff1660e01b815260040161032492919061062f565b602060405180830381600087803b15801561033e57600080fd5b505af1158015610352573d6000803e3d6000fd5b505050506040513d601f19601f820116820180604052508101906103769190610556565b50600160009054906101000a900473ffffffffffffffffffffffffffffffffffffffff1673ffffffffffffffffffffffffffffffffffffffff1663a9059cbb336002846103c39190610715565b6040518363ffffffff1660e01b81526004016103e092919061062f565b602060405180830381600087803b1580156103fa57600080fd5b505af115801561040e573d6000803e3d6000fd5b505050506040513d601f19601f820116820180604052508101906104329190610556565b5080600260003373ffffffffffffffffffffffffffffffffffffffff1673ffffffffffffffffffffffffffffffffffffffff168152602001908152602001600020600082825461048291906107a0565b925050819055506104ab6002826104999190610715565b6002836104a69190610715565b6104ea565b50565b60008054906101000a900473ffffffffffffffffffffffffffffffffffffffff1681565b60026020528060005260406000206000915090505481565b5050565b6000813590506104fd816108c7565b92915050565b600081519050610512816108de565b92915050565b600081359050610527816108f5565b92915050565b60006020828403121561053f57600080fd5b600061054d848285016104ee565b91505092915050565b60006020828403121561056857600080fd5b600061057684828501610503565b91505092915050565b60006020828403121561059157600080fd5b600061059f84828501610518565b91505092915050565b6105b1816107d4565b82525050565b6105c08161081c565b82525050565b60006105d36017836106ae565b91506105de8261089e565b602082019050919050565b6105f281610812565b82525050565b600060608201905061060d60008301866105a8565b61061a60208301856105a8565b61062760408301846105e9565b949350505050565b600060408201905061064460008301856105a8565b61065160208301846105e9565b9392505050565b600060208201905061066d60008301846105b7565b92915050565b6000602082019050818103600083015261068c816105c6565b9050919050565b60006020820190506106a860008301846105e9565b92915050565b600082825260208201905092915050565b60006106ca82610812565b91506106d583610812565b9250827fffffffffffffffffffffffffffffffffffffffffffffffffffffffffffffffff0382111561070a57610709610840565b5b828201905092915050565b600061072082610812565b915061072b83610812565b92508261073b5761073a61086f565b5b828204905092915050565b600061075182610812565b915061075c83610812565b9250817fffffffffffffffffffffffffffffffffffffffffffffffffffffffffffffffff048311821515161561079557610794610840565b5b828202905092915050565b60006107ab82610812565b91506107b683610812565b9250828210156107c9576107c8610840565b5b828203905092915050565b60006107df826107f2565b9050919050565b60008115159050919050565b600073ffffffffffffffffffffffffffffffffffffffff82169050919050565b6000819050919050565b60006108278261082e565b9050919050565b6000610839826107f2565b9050919050565b7f4e487b7100000000000000000000000000000000000000000000000000000000600052601160045260246000fd5b7f4e487b7100000000000000000000000000000000000000000000000000000000600052601260045260246000fd5b7f496e73756666696369656e7420636f6c6c61746572616c000000000000000000600082015250565b6108d0816107d4565b81146108db57600080fd5b50565b6108e7816107e6565b81146108f257600080fd5b50565b6108fe81610812565b811461090957600080fd5b5056fea26469706673582212207c6119d07cd0ce6ed0757e3b22269b7357dda9d2b0405d52b374d4e6db2bd1bd64736f6c63430008040033",
  "immutableReferences": {},
  "source": "// SPDX-License-Identifier: MIT\npragma solidity ^0.8.0;\n\n// This is the smart contract for the borrowers- they won't be able to withdraw, only add to liquidity pool or close their position and get their deposit back.\n\nimport \"@openzeppelin/contracts/token/ERC20/IERC20.sol\";\n\ncontract BorrowContract {\n    IERC20 public token1;\n    IERC20 public token2;\n\n    mapping(address => uint256) public deposits;\n\n    constructor(IERC20 _token1, IERC20 _token2) {\n        token1 = _token1;\n        token2 = _token2;\n    }\n\n    function deposit(uint256 amount) public {\n        // Transfer the tokens to this contract\n        token1.transferFrom(msg.sender, address(this), amount);\n\n        // Update the user's deposit amount\n        deposits[msg.sender] += amount;\n    }\n\n    function borrow(uint256 amount) public {\n        // Check if user has enough collateral\n        require(deposits[msg.sender] * 3 >= amount, \"Insufficient collateral\");\n\n        // Transfer the tokens to the borrower\n        token1.transfer(msg.sender, amount / 2);\n        token2.transfer(msg.sender, amount / 2);\n\n        // Update the user's deposit amount\n        deposits[msg.sender] -= amount;\n\n        // Mock liquidity pool interaction. Replace with actual interaction.\n        addToLiquidityPool(amount / 2, amount / 2);\n    }\n\n    // Mock function to represent adding to a liquidity pool\n    function addToLiquidityPool(uint256 amountToken1, uint256 amountToken2) internal {\n        // In a real-world scenario, this function would interact with the contracts of a specific liquidity pool (like Uniswap, SushiSwap etc.).\n        // It would take the borrowed tokens and add them to the liquidity pool.\n    }\n}\n",
  "sourcePath": "/Users/spurrya/Documents/hackathon/saturn-finance/contracts/TokenBorrow.sol",
  "compiler": {
    "name": "solc",
    "version": "0.8.4+commit.c7e474f2.Emscripten.clang"
  },
  "schemaVersion": "3.4.14",
  "updatedAt": "2023-06-25T01:36:49.454Z",
  "devdoc": {
    "kind": "dev",
    "methods": {},
    "version": 1
  },
  "userdoc": {
    "kind": "user",
    "methods": {},
    "version": 1
  }
}