{
  "contractName": "DepositContract",
  "abi": [
    {
      "anonymous": false,
      "inputs": [
        {
          "indexed": true,
          "internalType": "address",
          "name": "depositor",
          "type": "address"
        },
        {
          "indexed": false,
          "internalType": "uint256",
          "name": "amount",
          "type": "uint256"
        }
      ],
      "name": "Deposit",
      "type": "event"
    },
    {
      "anonymous": false,
      "inputs": [
        {
          "indexed": true,
          "internalType": "address",
          "name": "depositor",
          "type": "address"
        },
        {
          "indexed": false,
          "internalType": "uint256",
          "name": "amount",
          "type": "uint256"
        }
      ],
      "name": "Withdrawal",
      "type": "event"
    },
    {
      "inputs": [],
      "name": "deposit",
      "outputs": [],
      "stateMutability": "payable",
      "type": "function"
    },
    {
      "inputs": [
        {
          "internalType": "uint256",
          "name": "amount",
          "type": "uint256"
        }
      ],
      "name": "withdraw",
      "outputs": [],
      "stateMutability": "nonpayable",
      "type": "function"
    },
    {
      "inputs": [],
      "name": "getBalance",
      "outputs": [
        {
          "internalType": "uint256",
          "name": "",
          "type": "uint256"
        }
      ],
      "stateMutability": "view",
      "type": "function"
    }
  ],
  "bytecode": "0x608060405234801561001057600080fd5b506104e5806100206000396000f3fe6080604052600436106100345760003560e01c806312065fe0146100395780632e1a7d4d14610064578063d0e30db01461008d575b600080fd5b34801561004557600080fd5b5061004e610097565b60405161005b9190610380565b60405180910390f35b34801561007057600080fd5b5061008b60048036038101906100869190610305565b6100dd565b005b61009561024b565b005b60008060003373ffffffffffffffffffffffffffffffffffffffff1673ffffffffffffffffffffffffffffffffffffffff16815260200190815260200160002054905090565b806000803373ffffffffffffffffffffffffffffffffffffffff1673ffffffffffffffffffffffffffffffffffffffff16815260200190815260200160002054101561015e576040517f08c379a000000000000000000000000000000000000000000000000000000000815260040161015590610360565b60405180910390fd5b806000803373ffffffffffffffffffffffffffffffffffffffff1673ffffffffffffffffffffffffffffffffffffffff16815260200190815260200160002060008282546101ac9190610402565b925050819055503373ffffffffffffffffffffffffffffffffffffffff166108fc829081150290604051600060405180830381858888f193505050501580156101f9573d6000803e3d6000fd5b503373ffffffffffffffffffffffffffffffffffffffff167f7fcf532c15f0a6db0bd6d0e038bea71d30d808c7d98cb3bf7268a95bf5081b65826040516102409190610380565b60405180910390a250565b346000803373ffffffffffffffffffffffffffffffffffffffff1673ffffffffffffffffffffffffffffffffffffffff168152602001908152602001600020600082825461029991906103ac565b925050819055503373ffffffffffffffffffffffffffffffffffffffff167fe1fffcc4923d04b559f4d29a8bfc6cda04eb5b0d3c460751c2402c5c5cc9109c346040516102e69190610380565b60405180910390a2565b6000813590506102ff81610498565b92915050565b60006020828403121561031757600080fd5b6000610325848285016102f0565b91505092915050565b600061033b60148361039b565b91506103468261046f565b602082019050919050565b61035a81610436565b82525050565b600060208201905081810360008301526103798161032e565b9050919050565b60006020820190506103956000830184610351565b92915050565b600082825260208201905092915050565b60006103b782610436565b91506103c283610436565b9250827fffffffffffffffffffffffffffffffffffffffffffffffffffffffffffffffff038211156103f7576103f6610440565b5b828201905092915050565b600061040d82610436565b915061041883610436565b92508282101561042b5761042a610440565b5b828203905092915050565b6000819050919050565b7f4e487b7100000000000000000000000000000000000000000000000000000000600052601160045260246000fd5b7f496e73756666696369656e742062616c616e6365000000000000000000000000600082015250565b6104a181610436565b81146104ac57600080fd5b5056fea26469706673582212205374293dea256e8210594d27773a755183c281fa673f5ad352f19071b8f724fe64736f6c63430008040033",
  "immutableReferences": {},
  "source": "pragma solidity ^0.8.0;\n\n // This is the deposit contract for the lenders\n\ncontract DepositContract {\n    mapping (address => uint256) private _balances;\n\n    event Deposit(address indexed depositor, uint256 amount);\n    event Withdrawal(address indexed depositor, uint256 amount);\n\n    function deposit() public payable {\n        _balances[msg.sender] += msg.value;\n        emit Deposit(msg.sender, msg.value);\n    }\n\n    function withdraw(uint256 amount) public {\n        require(_balances[msg.sender] >= amount, \"Insufficient balance\");\n        _balances[msg.sender] -= amount;\n        payable(msg.sender).transfer(amount);\n        emit Withdrawal(msg.sender, amount);\n    }\n\n    function getBalance() public view returns (uint256) {\n        return _balances[msg.sender];\n    }\n}\n",
  "sourcePath": "/Users/spurrya/Documents/hackathon/saturn-finance/contracts/TokenAdd.sol",
  "compiler": {
    "name": "solc",
    "version": "0.8.4+commit.c7e474f2.Emscripten.clang"
  },
  "schemaVersion": "3.4.14",
  "updatedAt": "2023-06-25T01:36:49.454Z",
  "devdoc": {
    "kind": "dev",
    "methods": {},
    "version": 1
  },
  "userdoc": {
    "kind": "user",
    "methods": {},
    "version": 1
  }
}