{
  "contractName": "ERC20Adapter",
  "abi": [
    {
      "inputs": [
        {
          "internalType": "address",
          "name": "_tokenAddress",
          "type": "address"
        }
      ],
      "stateMutability": "nonpayable",
      "type": "constructor"
    },
    {
      "inputs": [],
      "name": "token",
      "outputs": [
        {
          "internalType": "contract IERC20",
          "name": "",
          "type": "address"
        }
      ],
      "stateMutability": "view",
      "type": "function",
      "constant": true
    },
    {
      "inputs": [
        {
          "internalType": "address",
          "name": "sender",
          "type": "address"
        },
        {
          "internalType": "address",
          "name": "recipient",
          "type": "address"
        },
        {
          "internalType": "uint256",
          "name": "amount",
          "type": "uint256"
        }
      ],
      "name": "transferFrom",
      "outputs": [
        {
          "internalType": "bool",
          "name": "",
          "type": "bool"
        }
      ],
      "stateMutability": "nonpayable",
      "type": "function"
    }
  ],
  "bytecode": "0x608060405234801561001057600080fd5b506040516104bd3803806104bd8339818101604052810190610032919061008d565b806000806101000a81548173ffffffffffffffffffffffffffffffffffffffff021916908373ffffffffffffffffffffffffffffffffffffffff160217905550506100ff565b600081519050610087816100e8565b92915050565b60006020828403121561009f57600080fd5b60006100ad84828501610078565b91505092915050565b60006100c1826100c8565b9050919050565b600073ffffffffffffffffffffffffffffffffffffffff82169050919050565b6100f1816100b6565b81146100fc57600080fd5b50565b6103af8061010e6000396000f3fe608060405234801561001057600080fd5b50600436106100365760003560e01c806323b872dd1461003b578063fc0c546a1461006b575b600080fd5b610055600480360381019061005091906101a7565b610089565b6040516100629190610292565b60405180910390f35b610073610144565b60405161008091906102ad565b60405180910390f35b60008060009054906101000a900473ffffffffffffffffffffffffffffffffffffffff1673ffffffffffffffffffffffffffffffffffffffff166323b872dd8585856040518463ffffffff1660e01b81526004016100e99392919061025b565b602060405180830381600087803b15801561010357600080fd5b505af1158015610117573d6000803e3d6000fd5b505050506040513d601f19601f8201168201806040525081019061013b91906101f6565b90509392505050565b60008054906101000a900473ffffffffffffffffffffffffffffffffffffffff1681565b60008135905061017781610334565b92915050565b60008151905061018c8161034b565b92915050565b6000813590506101a181610362565b92915050565b6000806000606084860312156101bc57600080fd5b60006101ca86828701610168565b93505060206101db86828701610168565b92505060406101ec86828701610192565b9150509250925092565b60006020828403121561020857600080fd5b60006102168482850161017d565b91505092915050565b610228816102c8565b82525050565b610237816102da565b82525050565b61024681610310565b82525050565b61025581610306565b82525050565b6000606082019050610270600083018661021f565b61027d602083018561021f565b61028a604083018461024c565b949350505050565b60006020820190506102a7600083018461022e565b92915050565b60006020820190506102c2600083018461023d565b92915050565b60006102d3826102e6565b9050919050565b60008115159050919050565b600073ffffffffffffffffffffffffffffffffffffffff82169050919050565b6000819050919050565b600061031b82610322565b9050919050565b600061032d826102e6565b9050919050565b61033d816102c8565b811461034857600080fd5b50565b610354816102da565b811461035f57600080fd5b50565b61036b81610306565b811461037657600080fd5b5056fea26469706673582212207ba394f2dd04c380be62280e1d0b0dbee777e30a8a3e3c6b04ab91be03ec43d564736f6c63430008040033",
  "immutableReferences": {},
  "source": "// SPDX-License-Identifier: MIT\n\npragma solidity ^0.8.4;\n\nimport \"./IERC20.sol\";\n\ncontract ERC20Adapter {\n    IERC20 public token;\n\n    constructor(address _tokenAddress) {\n        token = IERC20(_tokenAddress);\n    }\n\n    function transferFrom(address sender, address recipient, uint256 amount) external returns (bool) {\n        return token.transferFrom(sender, recipient, amount);\n    }\n}\n",
  "sourcePath": "/Users/spurrya/Documents/hackathon/saturn-finance/contracts/ERC20Adapter.sol",
  "compiler": {
    "name": "solc",
    "version": "0.8.4+commit.c7e474f2.Emscripten.clang"
  },
  "schemaVersion": "3.4.14",
  "updatedAt": "2023-06-25T01:38:06.730Z",
  "networkType": "ethereum",
  "devdoc": {
    "kind": "dev",
    "methods": {},
    "version": 1
  },
  "userdoc": {
    "kind": "user",
    "methods": {},
    "version": 1
  }
}