{
  "contractName": "TokenSwap",
  "abi": [
    {
      "inputs": [
        {
          "internalType": "address",
          "name": "_token1Address",
          "type": "address"
        },
        {
          "internalType": "address",
          "name": "_token2Address",
          "type": "address"
        }
      ],
      "stateMutability": "nonpayable",
      "type": "constructor"
    },
    {
      "inputs": [],
      "name": "token1",
      "outputs": [
        {
          "internalType": "contract ERC20Adapter",
          "name": "",
          "type": "address"
        }
      ],
      "stateMutability": "view",
      "type": "function",
      "constant": true
    },
    {
      "inputs": [],
      "name": "token2",
      "outputs": [
        {
          "internalType": "contract ERC20Adapter",
          "name": "",
          "type": "address"
        }
      ],
      "stateMutability": "view",
      "type": "function",
      "constant": true
    },
    {
      "inputs": [
        {
          "internalType": "address",
          "name": "user1",
          "type": "address"
        },
        {
          "internalType": "address",
          "name": "user2",
          "type": "address"
        },
        {
          "internalType": "uint256",
          "name": "amount1",
          "type": "uint256"
        },
        {
          "internalType": "uint256",
          "name": "amount2",
          "type": "uint256"
        }
      ],
      "name": "swap",
      "outputs": [],
      "stateMutability": "nonpayable",
      "type": "function"
    }
  ],
  "bytecode": "0x608060405234801561001057600080fd5b50604051610749380380610749833981810160405281019061003291906100cf565b816000806101000a81548173ffffffffffffffffffffffffffffffffffffffff021916908373ffffffffffffffffffffffffffffffffffffffff16021790555080600160006101000a81548173ffffffffffffffffffffffffffffffffffffffff021916908373ffffffffffffffffffffffffffffffffffffffff1602179055505050610154565b6000815190506100c98161013d565b92915050565b600080604083850312156100e257600080fd5b60006100f0858286016100ba565b9250506020610101858286016100ba565b9150509250929050565b60006101168261011d565b9050919050565b600073ffffffffffffffffffffffffffffffffffffffff82169050919050565b6101468161010b565b811461015157600080fd5b50565b6105e6806101636000396000f3fe608060405234801561001057600080fd5b50600436106100415760003560e01c806325be124e14610046578063d21220a714610064578063fe02915614610082575b600080fd5b61004e61009e565b60405161005b9190610441565b60405180910390f35b61006c6100c4565b6040516100799190610441565b60405180910390f35b61009c6004803603810190610097919061030b565b6100e8565b005b600160009054906101000a900473ffffffffffffffffffffffffffffffffffffffff1681565b60008054906101000a900473ffffffffffffffffffffffffffffffffffffffff1681565b60008054906101000a900473ffffffffffffffffffffffffffffffffffffffff1673ffffffffffffffffffffffffffffffffffffffff166323b872dd8585856040518463ffffffff1660e01b81526004016101459392919061040a565b602060405180830381600087803b15801561015f57600080fd5b505af1158015610173573d6000803e3d6000fd5b505050506040513d601f19601f82011682018060405250810190610197919061036e565b6101d6576040517f08c379a00000000000000000000000000000000000000000000000000000000081526004016101cd9061047c565b60405180910390fd5b600160009054906101000a900473ffffffffffffffffffffffffffffffffffffffff1673ffffffffffffffffffffffffffffffffffffffff166323b872dd8486846040518463ffffffff1660e01b81526004016102359392919061040a565b602060405180830381600087803b15801561024f57600080fd5b505af1158015610263573d6000803e3d6000fd5b505050506040513d601f19601f82011682018060405250810190610287919061036e565b6102c6576040517f08c379a00000000000000000000000000000000000000000000000000000000081526004016102bd9061045c565b60405180910390fd5b50505050565b6000813590506102db8161056b565b92915050565b6000815190506102f081610582565b92915050565b60008135905061030581610599565b92915050565b6000806000806080858703121561032157600080fd5b600061032f878288016102cc565b9450506020610340878288016102cc565b9350506040610351878288016102f6565b9250506060610362878288016102f6565b91505092959194509250565b60006020828403121561038057600080fd5b600061038e848285016102e1565b91505092915050565b6103a0816104ad565b82525050565b6103af816104f5565b82525050565b60006103c260168361049c565b91506103cd82610519565b602082019050919050565b60006103e560168361049c565b91506103f082610542565b602082019050919050565b610404816104eb565b82525050565b600060608201905061041f6000830186610397565b61042c6020830185610397565b61043960408301846103fb565b949350505050565b600060208201905061045660008301846103a6565b92915050565b60006020820190508181036000830152610475816103b5565b9050919050565b60006020820190508181036000830152610495816103d8565b9050919050565b600082825260208201905092915050565b60006104b8826104cb565b9050919050565b60008115159050919050565b600073ffffffffffffffffffffffffffffffffffffffff82169050919050565b6000819050919050565b600061050082610507565b9050919050565b6000610512826104cb565b9050919050565b7f546f6b656e32207472616e73666572206661696c656400000000000000000000600082015250565b7f546f6b656e31207472616e73666572206661696c656400000000000000000000600082015250565b610574816104ad565b811461057f57600080fd5b50565b61058b816104bf565b811461059657600080fd5b50565b6105a2816104eb565b81146105ad57600080fd5b5056fea2646970667358221220e981cb6bddd493928b34f7b2b4f6a8baff841f2a5cda9229a37ed8988d7fba5164736f6c63430008040033",
  "immutableReferences": {},
  "source": "// SPDX-License-Identifier: MIT\n\npragma solidity ^0.8.0;\n\nimport \"./ERC20Adapter.sol\";\n\ncontract TokenSwap {\n    ERC20Adapter public token1;\n    ERC20Adapter public token2;\n\n    constructor(address _token1Address, address _token2Address) {\n        token1 = ERC20Adapter(_token1Address);\n        token2 = ERC20Adapter(_token2Address);\n    }\n\n    function swap(address user1, address user2, uint256 amount1, uint256 amount2) external {\n        require(token1.transferFrom(user1, user2, amount1), \"Token1 transfer failed\");\n        require(token2.transferFrom(user2, user1, amount2), \"Token2 transfer failed\");\n    }\n}\n",
  "sourcePath": "/Users/spurrya/Documents/hackathon/saturn-finance/contracts/TokenSwap.sol",
  "compiler": {
    "name": "solc",
    "version": "0.8.4+commit.c7e474f2.Emscripten.clang"
  },
  "schemaVersion": "3.4.14",
  "updatedAt": "2023-06-25T01:38:06.732Z",
  "networkType": "ethereum",
  "devdoc": {
    "kind": "dev",
    "methods": {},
    "version": 1
  },
  "userdoc": {
    "kind": "user",
    "methods": {},
    "version": 1
  }
}